:1000000041C05BC05AC059C0BAC557C0AEC555C083
:1000100054C053C052C001C650C04FC04EC04DC0A6
:10002000B8C54BC04AC049C048C047C046C045C01B
:1000300044C043C099C293C28CC288C284C27EC2EB
:1000400077C244C352C345C350C343C34EC345C321
:100050004CC343C34AC343C348C341C346C342C35B
:1000600044C340C342C345C360C366C36CC37EC3BD
:10007000ADC6F1C6AEC6B0C6B6C6B9C6BCC6C3C666
:10008000C6C6DBC611241FBECFEFD2E0DEBFCDBF98
:1000900011E0A0E0B1E0EAE6FFE002C005900D92B9
:1000A000A638B107D9F722E0A6E8B1E001C01D9259
:1000B000AA3CB207E1F763D656C7A2CF6091C3024C
:1000C0007091C4028091C5029091C602089584B1D6
:1000D0008FEF84B987B18C6387B98AB1846E8AB98E
:1000E0008AB1857E8AB987B18C7F87B9089585B139
:1000F00015B888B1837C88B98BB18B718BB90895A1
:1001000084B114B887B1837C87B98AB18B718AB9FD
:10011000EEDF8AB1857E8AB98BB1857E8BB9089571
:1001200083E085BD81E080936E008BE08093810049
:1001300084E1809388000895E8E6F0E080818260A1
:100140008083ECE6F0E0808181608083D99A089515
:10015000E8E6F0E080818D7F80830895EEE6F0E0B0
:1001600080818E7F80830895EEE6F0E0808181605B
:1001700080830895CF93C82FF894C2DFDDDFCC23AE
:1001800089F080916C00826080936C00A89584B7A0
:10019000877F84BF8091600088618093600080E6E3
:1001A0008093600083B7817F846083BF83B7816061
:1001B00083BF78948895CC2379F080916C008D7FF3
:1001C00080936C0084B7877F84BF809160008861D2
:1001D0008093600010926000BBDF83B78E7F83BF87
:1001E000CF9175CFEBE8F1E0108211821282138279
:1001F0001482158208959AB1957E9AB99BB1957E25
:100200009BB9833091F028F4813049F0823051F06D
:100210000895853081F068F0863089F00895539A0A
:10022000549A0BC0539A549A02C0549A519A5C9AA9
:100230000895549A05C0539A519A5B9A0895539A17
:10024000519A599A0895883070F490E025B1FC01D4
:10025000EA58FE4F8081662311F0822B02C0809500
:10026000822385B908958C3070F490E028B1FC01A8
:10027000EA58FE4F8081662311F0822B02C08095E0
:10028000822388B90895803170F490E02BB1FC018D
:10029000EA58FE4F8081662311F0822B02C08095C0
:1002A00082238BB90895863130F4662311F08F5084
:1002B00001C080E0A0CF0895CF938093BA02C6E03A
:1002C00060E08C2FC0DFCF5FCC30D1F7CF910895A5
:1002D000EFE6F0E08081826080830895CF938830DC
:1002E00038F08C3040F08031B8F527EF31E005C0B0
:1002F00027E931E002C029E532E090E0FC01EA594B
:10030000FE4F7081FC01EA58FE4FC08140E050E092
:10031000872F90E0AC2FA095FC01E40FF51FE20FB2
:10032000F31F70817A2370834A5F5F4F4036510517
:1003300099F7A6E5B1E040E0461771F05D91FC0148
:1003400076E0579FE00DF11D1124E20FF31F50815D
:100350005C2B50834F5FF0CFCF910895CF93DF9305
:10036000FC018091C3029091C402A091C502B0919A
:10037000C602428153816481758184179507A6075F
:10038000B70720F18091C3029091C402A091C502E9
:10039000B091C6028C599F4FAF4FBF4F828393835A
:1003A000A483B58385B115B888B1837C88B98AB137
:1003B000857E8AB98BB181708BB98081863140F49A
:1003C000EF0161E040DF88818F5F888380E001C0BA
:1003D00081E0DF91CF9108950F931F93CF93DF9327
:1003E0004091C3025091C4026091C5027091C6024F
:1003F000FC01028113812481358140175107620776
:10040000730708F465C0EC0180916F0081FD03C0A3
:100410005FDF1882E7DE10E0E881F0E0EC5BFE4F82
:100420006081812F5BDF1F5F1031B1F788818F5FA3
:100430008883823108F04EC08091C3029091C4023B
:10044000A091C502B091C6028896A11DB11D8A83F4
:100450009B83AC83BD834091C3025091C4026091E1
:10046000C5027091C6028091870190918801A09188
:100470008901B0918A0184179507A607B70740F54F
:100480008091C3029091C402A091C502B091C602AE
:1004900088589F4FAF4FBF4F80938701909388013B
:1004A000A0938901B0938A0180919301E82FF0E035
:1004B000E05FFE4F908190938B01938190938F0129
:1004C0008F5F833018F48093930102C010929301E0
:1004D00080E001C081E0DF91CF911F910F910895DD
:1004E000CF93DF93D62F811106C0DD2371F08D2FBE
:1004F000DF91CF91E1CE8093B902C0E060E08C2F14
:10050000A2DECF5FC630D1F7F0CFDF91CF91089553
:10051000CF93DF93EB01877090E0FC013197E730D8
:10052000F10518F4E65EFF4F099461E088811EC072
:1005300060E0888188DE61E0898118C060E089819F
:1005400082DE61E001C060E08A8110C061E08B81E1
:100550000DC060E08B8177DE61E08C8107C060E0D8
:100560008C8171DE61E001C060E08D81DF91CF910F
:100570006ACE8F929F92AF92BF92CF92DF92EF920C
:10058000FF920F931F93CF93DF93FC01DB018081D8
:100590008C3009F410828081882361F1C090C302FD
:1005A000D090C402E090C502F090C6028D909D905C
:1005B000AD90BC9013978C149D04AE04BF04D0F48E
:1005C0002D933D934D935C9313978081853059F41F
:1005D000BA01A901405B5F4F6F4F7F4F4D935D9311
:1005E0006D937C931397B801EF01808191DF88812F
:1005F00081508883DF91CF911F910F91FF90EF90F1
:10060000DF90CF90BF90AF909F908F900895CF9242
:10061000DF92EF92FF920F931F93CF93DF93EC0142
:100620008881811103C08981882311F1C090C302A0
:10063000D090C402E090C502F090C60280E5C80EDA
:10064000D11CE11CF11CBE016E5F7F4F0AE011E07E
:10065000A7019601CE018DDFBE016A5F7F4F04E0E6
:1006600011E0A7019601CE01019683DF80E001C071
:1006700081E0DF91CF911F910F91FF90EF90DF907C
:10068000CF9008950F931F934091C3025091C402DD
:100690006091C5027091C602009187011091880196
:1006A0002091890130918A01401751076207730731
:1006B00008F47BC0E091C8024E2F50E0473151054D
:1006C00008F075C0FA01EF5DFF4F099468E088E01B
:1006D00002C060E080E104DF63C084E001C080E12B
:1006E000EBDD5EC060E084E0F6CF91DF811158C0A1
:1006F0005CC060E18CE0F2DD60E18EE0EFDD8091D6
:10070000C3029091C402A091C502B091C602885361
:100710009F4FAF4FBF4F8093870190938801A09365
:100720008901B0938A01D4DD3BC060E18DE0D6DD64
:1007300060E18FE0D3DD0DC081E080938B0182E02A
:1007400080938C0106C084E080938D0185E08093C6
:100750008E018091C3029091C402A091C502B09114
:10076000C60288539F4FAF4FBF4F12C083E08093A4
:100770008F0186E0809390018091C3029091C40222
:10078000A091C502B091C6028053984FAF4FBF4FA2
:100790008093870190938801A0938901B0938A0187
:1007A0008091C8028F5F8093C80280E001C081E021
:1007B0001F910F9108950F931F93CF93DF93409153
:1007C000C3025091C4026091C5027091C602FC013F
:1007D0000281138124813581401751076207730715
:1007E00028F1EC018091C3029091C402A091C5024E
:1007F000B091C6028896A11DB11D82839383A48304
:10080000B583E081EE2331F0F0E0E35DFE4F60E080
:10081000808119DDE881E63158F4F0E0E25DFE4FB9
:1008200061E0808110DD88818F5F888380E001C076
:1008300081E0DF91CF911F910F9108951F93CF9386
:10084000DF93182FEB0190E0059666E070E064D32B
:10085000FE01E80FF91F60E0808140DD812F66E036
:100860004FD3C90FD11D60E18881DF91CF911F91D6
:1008700035CD0F931F93CF93DF934091C3025091D7
:10088000C4026091C5027091C602FC01028113810D
:1008900024813581041715072607370768F5EC0111
:1008A0008091C3029091C402A091C502B091C6028A
:1008B00088589F4FAF4FBF4F82839383A483B583E4
:1008C00068E271E08081BADF62E271E08881B6DFC0
:1008D0006CE171E08881B2DF2881822F66E010D35D
:1008E000E92FF0E0EA5EFE4F808180938B012F5F5D
:1008F000288381E0283308F480E0DF91CF911F91B5
:100900000F91089580916F008D7F80936F0085B166
:1009100015B888B1837C88B98BB18B718BB980E0B5
:100920006ADC60DC109287011092880110928901C4
:1009300010928A011092C80280E090E0FC01E95612
:10094000FE4F1082FC01E75AFD4F1082FC01E95076
:10095000FE4F108201968036910581F71092BB02FE
:100960001092BC021092BD021092BE021092BF0201
:100970001092C0021092C1021092C2021092B902EB
:100980001092BA020895CF93C82FBCDFCC2319F080
:10099000C093570205C0809157028F5F8093570222
:1009A000809157028B3018F084E080935702809139
:1009B000C3029091C402A091C502B091C6024091B9
:1009C00000015091010160910201709103014817EB
:1009D00059076A077B0718F483E0809357028091D8
:1009E0005702853049F178F4813041F560E180E0CB
:1009F00075DC60E183E072DC60E186E06FDC60E181
:100A000089E06CDC19C08630B9F08930B9F4809186
:100A1000C3029091C402A091C502B091C602805653
:100A2000904FAF4FBF4F8093BB029093BC02A093F7
:100A3000BD02B093BE0202C0CF914ACCCF910895BF
:100A400081E098DB80E09FCF1F93CF93DF93182F37
:100A5000C3E0D0E081E051D1882311F0812F10C094
:100A600081E040D18823B1F38091B902833060F0F6
:100A700060E080E033DC72DB3099FECF75DB83E031
:100A8000DF91CF911F917FCF9E01281B3109C901B2
:100A9000922F990F60E0890F21DC8091B9028F5F5E
:100AA0008093B902D7CF8091C3029091C402A091E4
:100AB000C502B091C60280529D4CA64DBF4F809397
:100AC000000190930101A0930201B09303010895E6
:100AD000CF92DF92EF92FF92CF93C82FF9DB80E0A5
:100AE00049DB1092B90260E180E0F8DBF1DBC12C58
:100AF0008AE6D82E88E1E82EF12C81E0C81AD108C8
:100B0000E108F10859F181E0EDD0882319F18091D5
:100B1000B9028330A8F060E189E0E0DB1FDB3099A7
:100B2000FECF22DBC0DF8C2F2EDF8091860181601B
:100B300080938601CF91FF90EF90DF90CF90089542
:100B4000982F990F60E1890FC9DB8091B9028F5FFF
:100B50008093B90281E0D1D0882379F283E0CF91EC
:100B6000FF90EF90DF90CF900ECF1F920F920FB6B5
:100B70000F9211240F900FBE0F901F9018951F9287
:100B80000F920FB60F9211240F900FBE0F901F906F
:100B900018951F920F920FB60F9211242F933F9327
:100BA0004F935F936F937F938F939F93AF93BF9375
:100BB000EF93FF938091C3029091C402A091C5026C
:100BC000B091C6020196A11DB11D8093C3029093FE
:100BD000C402A093C502B093C60283E886BD80918B
:100BE000C3029091C402A091C502B091C6026AE00E
:100BF00087D1911101C089D0FF91EF91BF91AF9141
:100C00009F918F917F916F915F914F913F912F9124
:100C10000F900FBE0F901F9018951F920F920FB656
:100C20000F9211242F933F934F935F936F937F9372
:100C30008F939F93AF93BF93CF93EF93FF9357DA25
:100C4000E0919201F0E0E956FE4F908185B1892B49
:100C500085B9E0919201F0E0E75AFD4F908188B1AB
:100C6000892B88B9E0919201F0E0E950FE4F908124
:100C70008BB1892B8BB9C0919101EC2FF0E0E55736
:100C8000FE4F8081B8DACF5FC63018F4C09391016F
:100C900002C010929101809192018F5F803618F40A
:100CA0008093920102C010929201FF91EF91CF9137
:100CB000BF91AF919F918F917F916F915F914F9174
:100CC0003F912F910F900FBE0F901F901895F894A1
:100CD0009091C70289239091C70298279093C702E9
:100CE00078940895F894909158028923909158022D
:100CF00098279093580278940895F8949091C90297
:100D000090958923E4CFEEDFE2CF26B18091C9022E
:100D10002827909196019223892F809580939601A0
:100D2000909195019223982790939501822389238E
:100D30009091C90298279093C9022091C90290917D
:100D4000C7028223892B8093C7028091C9028370D6
:100D500019F482E38093940180919401815019F0F9
:100D600080939401089586E4809394018091C90250
:100D7000909158028370892B8093580208951092A5
:100D8000C3021092C4021092C5021092C60284E0FF
:100D9000809357029CD984E0F6DDC2D97894C0E0F4
:100DA00060E18C2F9BDACF5FC031D1F716E0D0E045
:100DB000C0E0E09157028E2F90E0FC013197EA30BD
:100DC000F10508F048C0E85CFF4F0994812F3CDE34
:100DD00042C0812F7DDE3FC089EB92E0BFDA8823DD
:100DE000D1F12EDE38C089EB92E043DDF8CF89EBFC
:100DF00092E0F2DA25C089EB92E044DC882359F1D5
:100E000080E0C1DD28C089EB92E001DCF7CF809162
:100E1000C3029091C402A091C502B091C602409154
:100E2000BB025091BC026091BD027091BE02481796
:100E300059076A077B07A0F4E3CF89EB92E0BBDC9C
:100E4000882349F08091BA028F5F8093BA0286307E
:100E500040F61092B902809157028D7F813029F1BE
:100E600082E04BDF8823A9F08091860181FF04C0D6
:100E70008D7F809386010DC088E085DDD23010F42F
:100E800084E001C080E118DADF5FD43008F0D0E000
:100E90000ADE82E027DF882341F080E074DD809164
:100EA0008601826080938601FEDD81E026DF882353
:100EB000B1F08091860180FF04C08E7F809386010F
:100EC0000EC088E060DD60E0C23010F484E001C054
:100ED00080E106DBCF5FC43008F0C0E0E4DD81E0F4
:100EE00001DF882309F465CF00915702802F8D7FA1
:100EF000813009F4012F81E046DDD5DD102F59CF77
:100F0000991B79E004C0991F961708F0961B881F5B
:100F10007A95C9F78095089597FB072E16F40094EB
:100F200006D077FD08D00BD007FC05D03EF4909595
:100F300081959F4F0895709561957F4F0895AA1BE5
:100F4000BB1B51E107C0AA1FBB1FA617B70710F0B4
:100F5000A61BB70B881F991F5A95A9F780959095E6
:0A0F6000BC01CD010895F894FFCF05
:100F6A00E03229000B0A09080706020100050403FA
:100F7A000104030205060301020602010205080B29
:100F8A0008050D0C0E0F0E0C0003060906031202CB
:100F9A00000E0405030F0A0D06110B08150913109C
:100FAA000C011407010203040506070A0E100E0AB3
:100FBA000706050403020008040C0109050D020ACC
:100FCA00060E03070B0F00010203040503040500C4
:100FDA0001020002030508102001020480402010CB
:060FEA0008044080200411
:00000001FF
